:100000000C9422010C9453010C9453010C94530151
:100010000C9453010C9453010C9453010C94530110
:100020000C9453010C9453010C9453010C94530100
:100030000C9453010C9453010C9453010C945301F0
:100040000C9453010C9453010C9453010C945301E0
:100050000C9453010C9453010C9453010C947E02A4
:100060000C9453010C9479060C9445070C9453019D
:100070000C9453010C9453010C9453010C945301B0
:100080000C9453010C9453010C9453010C945301A0
:100090000C94AC060C9484070C9453010C945301FB
:1000A0000C9453010C9453010C9453010C94530180
:1000B0000C9453010C9453010C9453010C94530170
:1000C0000C9453010C9453010C9453010C94DF06CF
:1000D0000C94C3070C9453010C9412070C9402085F
:1000E0000C94530107634236B79BD8A71A39685658
:1000F00018AEBAAB558C1D3CB7CC5763BD6DEDFD4A
:10010000753EF6177231BF000000803F0800000006
:10011000BE922449123EABAAAA2ABECDCCCC4C3EFC
:1001200000000080BEABAAAAAA3E00000000BF00EB
:100130000000803F0000000000084178D3BB4387E7
:10014000D1133D190E3CC3BD4282AD2B3E68EC82FB
:1001500076BED98FE1A93E4C80EFFFBE01C4FF7F80
:100160003F00000000000C94C9080C94D6050C94C4
:10017000C6050C94F2050C9412060C948B030C9497
:100180001D06010210202008081020401020408089
:10019000020102010804020101020408102040804B
:1001A00080402010080402018004020180402010D9
:1001B0000804020108040201010204081020408022
:1001C0000102040810204080050505050705080800
:1001D0000808020202020A0A0808040404040101D1
:1001E00001010101010103030303030303030407E6
:1001F00007070C0C0C0C0C0C0C0C0202020206067D
:100200000606060606060B0B0B0B0B0B0B0B000072
:100210002200250028002B002E00310034000201AE
:100220000000050108010B01000021002400270047
:100230002A002D00300033000101000004010701F5
:100240000A01C90811241FBECFEFD1E2DEBFCDBF26
:1002500000E00CBF12E0A0E0B2E0E4E2FBE100E06D
:100260000BBF02C007900D92A237B107D9F725E066
:10027000A2E7B2E001C01D92A332B207E1F711E09C
:10028000C2E2D1E000E006C021970109802FFE0103
:100290000E94880DC132D10780E00807A9F70E94AB
:1002A0007A020C949B090C9400000E94C80262E040
:1002B00088E00E944F0340E855E260E070E081EE84
:1002C00092E00E94410840E855E260E070E08BE770
:1002D00092E00C944108CF93DF93CDB7DEB7CC5CAE
:1002E000D1090FB6F894DEBF0FBECDBF81E00E94EA
:1002F0002A036C01990FEE08FF082AE030E0B701ED
:10030000A60181EE92E00E94BD04C701B6010E94E1
:10031000B80A9B01AC0160E070E080EC90E40E94C0
:10032000DC0B6B017C0122E030E0AB01BC0181EE13
:1003300092E00E94B40561E072E081EE92E00E94DA
:10034000C803C701B6010E94890A2BE03BE440E0E4
:1003500050E00E94660DAB01BC012AE030E081EE66
:1003600092E00E949E0467E172E081EE92E00E94BA
:10037000E503CE0101966C0188ECF60111928A9595
:10038000E9F7760100E010E081EE92E00E94C605F8
:10039000892BD1F381EE92E00E94F205F70191835F
:1003A00080838D30910579F0BC01605371096193B0
:1003B00071937F014AE050E081EE92E00E94970441
:1003C0000F5F1F4FE1CF81EE92E00E94D103480101
:1003D000880C991CA12CB12CE12CF12C412C512C16
:1003E000320182E0A81AB108E016F10609F454C0FF
:1003F000B7010F2C000C880B990B0E94BA0A9B01C5
:10040000AC0160E070E080E291E40E94DC0B9B01B3
:10041000AC01F501E80DF91DEC0DFD1D6081718148
:10042000072E000C880B990BC753DF4F2883C95C3C
:10043000D040C653DF4F3883CA5CD040C553DF4F2E
:100440004883CB5CD040C453DF4F5883CC5CD04052
:100450000E94BA0AC753DF4F2881C95CD040C653F7
:10046000DF4F3881CA5CD040C553DF4F4881CB5C39
:10047000D040C453DF4F5881CC5CD0400E946F0BFA
:100480009B01AC01C301B2010E949F092B013C01F9
:10049000FFEFEF1AFF0AA5CF6AE372E081EE92E068
:1004A0000E94C80322E030E0B301A20181EE92E095
:1004B0000E94B40581EE92E00E94C605892BD1F31B
:1004C00081EE92E00E94F2058D30910519F46FE4FF
:1004D00072E005C08830910539F462E572E08BE77F
:1004E00092E00E94C803E6CF682F8BE792E00E945B
:1004F000CA03E0CF0E9455010E946B011F920F9228
:100500000FB60F9211242F933F938F939F93AF9326
:10051000BF938091730290917402A0917502B09183
:1005200076023091720223E0230F2D3720F40196DA
:10053000A11DB11D05C026E8230F0296A11DB11D06
:10054000209372028093730290937402A0937502B9
:10055000B09376028091770290917802A09179020F
:10056000B0917A020196A11DB11D809377029093FC
:100570007802A0937902B0937A02BF91AF919F91D4
:100580008F913F912F910F900FBE0F901F90189554
:10059000789484B5826084BD84B5816084BD85B55E
:1005A000826085BD85B5816085BDEEE6F0E0808125
:1005B00081608083E1E8F0E0108280818260808346
:1005C000808181608083E0E8F0E0808181608083C9
:1005D000E1EBF0E0808184608083E0EBF0E08081FB
:1005E00081608083E1E9F0E08081826080838081A6
:1005F00081608083E0E9F0E0808181608083E1EACE
:10060000F0E0808182608083808181608083E0EA85
:10061000F0E0808181608083E1E2F1E080818260AE
:100620008083808181608083E0E2F1E0808181606D
:100630008083EAE7F0E0808184608083808182604B
:100640008083808181608083808180688083109234
:10065000C1000895863308F0865390917B00282FBF
:100660002870977F922B90937B00877020910002D7
:1006700090E4299F90011124822B80937C0080912B
:100680007A00806480937A0080917A0086FDFCCFA6
:10069000809178002091790090E0922B0895CF937B
:1006A000DF9390E0FC01EE57FE4F2491FC01E853EC
:1006B000FE4F8491882361F190E0880F991FFC011F
:1006C000E85DFD4FC591D491FC01E25FFD4FA5911E
:1006D000B491611109C09FB7F89488812095822355
:1006E0008883EC912E230BC0623061F49FB7F8949D
:1006F0003881822F809583238883EC912E2B2C9335
:100700009FBF06C08FB7F894E8812E2B28838FBF38
:10071000DF91CF910895CF92DF92EF92FF920F93E6
:100720001F93CF93DF936C01EB017B01E40EF51E69
:1007300000E010E0CE15DF0561F06991D601ED9182
:10074000FC910190F081E02DC6011995080F191F49
:10075000F1CFC801DF91CF911F910F91FF90EF90E2
:10076000DF90CF9008956115710579F0FB0101903C
:100770000020E9F73197AF01461B570BDC01ED91E3
:10078000FC910280F381E02D199480E090E00895BF
:100790000C94B303DC01ED91FC910190F081E02D0C
:1007A00019940F931F93CF93DF93EC016DE00E9498
:1007B000CA038C016AE0CE010E94CA03800F911F18
:1007C000DF91CF911F910F9108950F931F93CF93B6
:1007D000DF93EC010E94B3038C01CE010E94D10390
:1007E000800F911FDF91CF911F910F9108958F92EC
:1007F0009F92AF92BF92CF92DF92EF92FF920F93B0
:100800001F93CF93DF93CDB7DEB7A1970FB6F894C0
:10081000DEBF0FBECDBF6C01142FE52FCB01022F21
:1008200019A2223008F40AE07E0121E2E20EF11C56
:10083000802E912CA12CB12C612F7E2FA50194012B
:100840000E94660D029F1019112481E0E81AF10838
:100850001A3014F4105D01C0195CF7011083122FD7
:10086000E32FCA01232B242B252B31F7B701C60117
:100870000E94B303A1960FB6F894DEBF0FBECDBFA2
:10088000DF91CF911F910F91FF90EF90DF90CF906C
:10089000BF90AF909F908F900895CF92DF92EF928C
:1008A000FF920F931F93CF93DF93EC016A017B01BB
:1008B0002115310579F4E881F9810190F081E02D6D
:1008C000642FDF91CF911F910F91FF90EF90DF90F8
:1008D000CF9019942A303105E9F477FF1AC06DE200
:1008E0000E94CA038C0144275527BA014C195D099F
:1008F0006E097F092AE0CE010E94F703800F911F45
:10090000DF91CF911F910F91FF90EF90DF90CF90EB
:1009100008952AE0B701A601CE01DF91CF911F9182
:100920000F91FF90EF90DF90CF900C94F7039A0116
:10093000AB01770F660B770B0C944D040F931F934D
:10094000CF93DF93EC010E944D048C01CE010E94F5
:10095000D103800F911FDF91CF911F910F910895C7
:100960002115310541F4DC01ED91FC910190F081FC
:10097000E02D642F19940C94F7030F931F93CF93DA
:10098000DF93EC010E94B0048C01CE010E94D103E0
:10099000800F911FDF91CF911F910F9108954F927A
:1009A0005F926F927F928F929F92AF92BF92CF92FF
:1009B000DF92EF92FF92CF93DF93EC016A017B010C
:1009C000B22E9A01AB01C701B6010E942C0C8823FC
:1009D00019F066E572E027C026013701E89477F840
:1009E0002FEF3FEF4FE75FE7C301B2010E942C0CEE
:1009F00081110DC02FEF3FEF4FE75FE7C301B20159
:100A00000E940B0A18161CF46AE572E00CC02FEF66
:100A10003FEF4FE75FE4C701B6010E946A0B18166B
:100A20009CF46EE572E0CE01DF91CF91FF90EF90E4
:100A3000DF90CF90BF90AF909F908F907F906F90FE
:100A40005F904F900C94B3032FEF3FEF4FE75FECB5
:100A5000C701B6010E940B0A87FDE3CF20E030E01A
:100A6000A901C701B6010E940B0A87FF0AC06DE207
:100A7000CE010E94CA034C01F7FAF094F7F8F09403
:100A800002C0812C912CA12C60E070E080E09FE3FB
:100A9000AB1441F020E030E040E251E40E94100A43
:100AA000A394F6CF9B01AC01C701B6010E949F0938
:100AB0002B013C010E94890A6B017C010E94B80A4B
:100AC0009B01AC01C301B2010E949E092B013C01B4
:100AD0002AE0B701A601CE010E94F7037C01E80CD1
:100AE000F91CBB2039F068E372E0CE010E94B30329
:100AF000E80EF91EDB2CDD2039F120E030E040E289
:100B000051E4C301B2010E946F0B2B013C010E9412
:100B1000820A4B01770FAA08BB082AE030E0B50132
:100B2000A401CE010E944D04E80EF91EC501B401D6
:100B30000E94BA0A9B01AC01C301B2010E949E0946
:100B40002B013C01DA94D7CFC701DF91CF91FF9001
:100B5000EF90DF90CF90BF90AF909F908F907F905D
:100B60006F905F904F9008950F931F93CF93DF93F3
:100B7000EC010E94CF048C01CE010E94D103800FB2
:100B8000911FDF91CF911F910F910895FC01248552
:100B90003585F901E05CFF4F80819181329620819B
:100BA0003181821B930B8F7399270895DC011C966A
:100BB000ED91FC911D97DF01A05CBF4F2D913C9101
:100BC000119712968D919C9111972817390739F03A
:100BD0008D919C91E80FF91F808190E008958FEF2F
:100BE0009FEF0895FC01A485B585FD01E05CFF4FF2
:100BF000208131813296808191812817390779F0DF
:100C000080819181A80FB91F8C91208131812F5F44
:100C10003F4F2F7333273183208390E008958FEF68
:100C20009FEF0895FC0181A1882329F0A489B5894B
:100C30008C9186FFFBCF11A208950F931F93CF9342
:100C4000DF93FC01A685B7858D01005C1F4FE8018D
:100C50008881998101968F739927AD014E5B5F4F13
:100C6000EA012881398182179307D1F3E8012881AD
:100C70003981A20FB31F6C93A685B785A05CBF4FC7
:100C800011969C938E93A689B7892C9181E090E070
:100C9000078C02C0880F991F0A94E2F7822B8C936D
:100CA00081E081A30488F589E02D808180648083C0
:100CB00081E090E0DF91CF911F910F910895FB01AA
:100CC000E05CFF4F208131812F5F3F4F2F7333272F
:100CD000DB01AE5BBF4F4D915C912417350741F0AE
:100CE00040815181DB01A40FB51F8C933183208398
:100CF00008951F920F920FB60F9211240BB60F9208
:100D00002F933F934F935F936F937F938F939F9313
:100D1000AF93BF93EF93FF938091C00082FD07C014
:100D20008091C6006FED74E00E945F0602C0809162
:100D3000C600FF91EF91BF91AF919F918F917F91ED
:100D40006F915F914F913F912F910F900BBE0F903C
:100D50000FBE0F901F9018951F920F920FB60F9213
:100D600011240BB60F922F933F934F935F936F9382
:100D70007F938F939F93AF93BF93EF93FF93809154
:100D8000C80082FD07C08091CE0067E574E00E9434
:100D90005F0602C08091CE00FF91EF91BF91AF91AD
:100DA0009F918F917F916F915F914F913F912F9183
:100DB0000F900BBE0F900FBE0F901F9018951F92B3
:100DC0000F920FB60F9211240BB60F922F933F93F1
:100DD0004F935F936F937F938F939F93AF93BF9343
:100DE000EF93FF938091D00082FD07C08091D600E1
:100DF0006FEC73E00E945F0602C08091D600FF9105
:100E0000EF91BF91AF919F918F917F916F915F9182
:100E10004F913F912F910F900BBE0F900FBE0F90EF
:100E20001F9018951F920F920FB60F9211240BB6B8
:100E30000F922F933F934F935F936F937F938F9373
:100E40009F93AF93BF93EF93FF938091300182FD07
:100E500007C08091360167E473E00E945F0602C01C
:100E600080913601FF91EF91BF91AF919F918F914A
:100E70007F916F915F914F913F912F910F900BBE9A
:100E80000F900FBE0F901F9018951F920F920FB6E4
:100E90000F9211240BB60F922F933F938F939F9332
:100EA000EF93FF932091DB043091DC048091DD040B
:100EB0009091DE042817390731F48091C1008F7DAD
:100EC0008093C10014C0E091DD04F091DE04E5568A
:100ED000FB4F20818091DD049091DE0401968F7399
:100EE00099279093DE048093DD042093C600FF9140
:100EF000EF919F918F913F912F910F900BBE0F908B
:100F00000FBE0F901F9018951F920F920FB60F9261
:100F100011240BB60F922F933F938F939F93EF93D0
:100F2000FF93209153043091540480915504909183
:100F300056042817390731F48091C9008F7D8093BA
:100F4000C90014C0E0915504F0915604ED5EFB4FCA
:100F50002081809155049091560401968F739927B2
:100F600090935604809355042093CE00FF91EF9107
:100F70009F918F913F912F910F900BBE0F900FBEBD
:100F80000F901F9018951F920F920FB60F92112479
:100F90000BB60F922F933F938F939F93EF93FF93F3
:100FA0002091CB033091CC038091CD039091CE035F
:100FB0002817390731F48091D1008F7D8093D100BB
:100FC00014C0E091CD03F091CE03E557FC4F208192
:100FD0008091CD039091CE0301968F7399279093C2
:100FE000CE038093CD032093D600FF91EF919F9184
:100FF0008F913F912F910F900BBE0F900FBE0F90CE
:101000001F9018951F920F920FB60F9211240BB6D6
:101010000F922F933F938F939F93EF93FF93209182
:101020004303309144038091450390914603281770
:10103000390731F4809131018F7D8093310114C0E3
:10104000E0914503F0914603ED5FFC4F20818091D4
:1010500045039091460301968F7399279093460319
:101060008093450320933601FF91EF919F918F91DB
:101070003F912F910F900BBE0F900FBE0F901F90BE
:101080001895CF92DF92EF92FF920F931F93CF9319
:10109000DF93EC016A017B014115514E6105710539
:1010A00009F1EC89FD8981E090E008A002C0880F79
:1010B000991F0A94E2F7808360E079E08DE390E085
:1010C000A70196010E94660D89019A01015011093C
:1010D000210931093695279517950795980101152E
:1010E0001041A8F0EC89FD89108260E874E88EE177
:1010F00090E0A70196010E94660DDA01C9010197EF
:10110000A109B109B695A795979587959C01E8899E
:10111000F9893083EA89FB89208319A2EE89FF8946
:10112000408181E090E09C010C8C02C0220F331FB3
:101130000A94E2F7242B2083EE89FF8940819C01E9
:101140000D8C02C0220F331F0A94E2F7242B208358
:10115000EE89FF8940819C010E8C02C0220F331F53
:101160000A94E2F7242B2083EE89FF8920810F8CDB
:1011700002C0880F991F0A94E2F78095822380832A
:10118000DF91CF911F910F91FF90EF90DF90CF9063
:101190000895CF92DF92EF92FF92E1EEF2E0138298
:1011A000128288EEC82E83E0D82EE12CF12CC48266
:1011B000D582E682F78266E672E0718360838FED06
:1011C00094E0958784878BE994E09787868785EC00
:1011D00090E0918B808B84EC90E0938B828B80EC01
:1011E00090E0958B848B81EC90E0978B868B82ECE2
:1011F00090E0918F808F86EC90E0938F828F44E017
:10120000448F33E0358F27E0268F95E0978F81E07C
:1012100080A3EFEBF2E013821282C482D582E682D1
:10122000F78271836083A7E5B4E0B587A487A3E163
:10123000B4E0B787A687ADECB0E0B18BA08BACEC87
:10124000B0E0B38BA28BA8ECB0E0B58BA48BA9EC7B
:10125000B0E0B78BA68BAAECB0E0B18FA08FAEEC5C
:10126000B0E0B38FA28F448F358F268F978F80A3E6
:10127000EDE9F2E013821282C482D582E682F7821F
:1012800071836083AFECB3E0B587A487ABE8B3E0CC
:10129000B787A687A5EDB0E0B18BA08BA4EDB0E039
:1012A000B38BA28BA0EDB0E0B58BA48BA1EDB0E029
:1012B000B78BA68BA2EDB0E0B18FA08FA6EDB0E00A
:1012C000B38FA28F448F358F268F978F80A3EBE744
:1012D000F2E013821282C482D582E682F7827183A1
:1012E000608367E473E07587648763E073E0778702
:1012F000668765E371E0718B608B64E371E0738BEB
:10130000628B60E371E0758B648B61E371E0778BD6
:10131000668B62E371E0718F608F66E371E0738FBB
:10132000628F448F358F268F978F80A3FF90EF9029
:10133000DF90CF900895F8940C94900D5058BB27EF
:10134000AA270E94B6090C94300B0E94220B38F099
:101350000E94290B20F039F49F3F19F426F40C94D5
:101360001F0B0EF4E095E7FB0C94190BE92F0E947C
:10137000410B58F3BA17620773078407950720F0EB
:1013800079F4A6F50C94630B0EF4E0950B2EBA2FAE
:10139000A02D0B01B90190010C01CA01A00111247B
:1013A000FF27591B99F0593F50F4503E68F11A1627
:1013B000F040A22F232F342F4427585FF3CF4695B8
:1013C00037952795A795F0405395C9F77EF41F16DA
:1013D000BA0B620B730B840BBAF09150A1F0FF0FA4
:1013E000BB1F661F771F881FC2F70EC0BA0F621F90
:1013F000731F841F48F4879577956795B795F79580
:101400009E3F08F0B0CF9395880F08F09927EE0F14
:101410009795879508950E94F50A08F481E008954C
:101420000E94240A0C94300B0E94290B58F00E9451
:10143000220B40F029F45F3F29F00C94190B511155
:101440000C94640B0C941F0B0E94410B68F39923BE
:10145000B1F3552391F3951B550BBB27AA276217B0
:101460007307840738F09F5F5F4F220F331F441FBD
:10147000AA1FA9F335D00E2E3AF0E0E832D09150F1
:101480005040E695001CCAF72BD0FE2F29D0660FDE
:10149000771F881FBB1F261737074807AB07B0E821
:1014A00009F0BB0B802DBF01FF2793585F4F3AF027
:1014B0009E3F510578F00C94190B0C94640B5F3F20
:1014C000E4F3983ED4F3869577956795B795F795AD
:1014D0009F5FC9F7880F911D9695879597F9089595
:1014E000E1E0660F771F881FBB1F62177307840731
:1014F000BA0720F0621B730B840BBA0BEE1F88F740
:10150000E09508950E94890A6894B1110C94640BC7
:1015100008950E94490B88F09F5798F0B92F99279A
:10152000B751B0F0E1F0660F771F881F991F1AF0CE
:10153000BA95C9F714C0B13091F00E94630BB1E0C5
:1015400008950C94630B672F782F8827B85F39F0C4
:10155000B93FCCF3869577956795B395D9F73EF467
:1015600090958095709561957F4F8F4F9F4F08950F
:10157000E89409C097FB3EF490958095709561952D
:101580007F4F8F4F9F4F9923A9F0F92F96E9BB27E3
:101590009395F695879577956795B795F111F8CF5F
:1015A000FAF4BB0F11F460FF1BC06F5F7F4F8F4FCA
:1015B0009F4F16C0882311F096E911C0772321F0C0
:1015C0009EE8872F762F05C0662371F096E8862F58
:1015D00070E060E02AF09A95660F771F881FDAF7AF
:1015E000880F9695879597F90895990F0008550FDC
:1015F000AA0BE0E8FEEF16161706E807F907C0F099
:1016000012161306E407F50798F0621B730B840BA0
:10161000950B39F40A2661F0232B242B252B21F47A
:1016200008950A2609F4A140A6958FEF811D811D1A
:10163000089597F99F6780E870E060E008959FEF54
:1016400080EC089500240A94161617061806090659
:10165000089500240A941216130614060506089528
:10166000092E0394000C11F4882352F0BB0F40F4B0
:10167000BF2B11F460FF04C06F5F7F4F8F4F9F4FF0
:10168000089557FD9058440F551F59F05F3F71F072
:101690004795880F97FB991F61F09F3F79F08795D9
:1016A0000895121613061406551FF2CF4695F1DF62
:1016B00008C0161617061806991FF1CF86957105F2
:1016C000610508940895E894BB2766277727CB0126
:1016D00097F908950E94F50A08F48FEF08950E9483
:1016E000820B0C94300B0E94220B38F00E94290BC5
:1016F00020F0952311F00C94190B0C941F0B11245E
:101700000C94640B0E94410B70F3959FC1F3950FED
:1017100050E0551F629FF001729FBB27F00DB11D75
:10172000639FAA27F00DB11DAA1F649F6627B00D05
:10173000A11D661F829F2227B00DA11D621F739FEE
:10174000B00DA11D621F839FA00D611D221F749FFC
:101750003327A00D611D231F849F600D211D822F43
:10176000762F6A2F11249F5750409AF0F1F088236A
:101770004AF0EE0FFF1FBB1F661F771F881F915097
:101780005040A9F79E3F510580F00C94190B0C9422
:10179000640B5F3FE4F3983ED4F3869577956795A5
:1017A000B795F795E7959F5FC1F7FE2B880F911DC1
:1017B0009695879597F90895FA01EE0FFF1F3096D9
:1017C00021053105A1F16115710561F48038BFE390
:1017D0009B0749F168949038810561F08038BFEF2C
:1017E0009B0741F099234AF5FF3FE10531052105AB
:1017F00019F1E8940894E795D901AA2329F4AB2FAD
:10180000BE2FF85FD0F310C0FF5F70F4A695E0F72D
:10181000F73950F019F0FF3A38F49F779F930DD0C5
:101820000F9007FC9058089546F00C941F0B60E051
:1018300070E080E89FE308954FE79F775F934F93B1
:101840003F932F930E94DC0C2F913F914F915F911A
:101850000E946F0B0C94390C0E94F50A880B990BAF
:10186000089529F416F00C94190B0C94630B0C9446
:101870001F0B0E94490BA8F39638A0F707F80F92A8
:10188000E8942BE33AEA48EB5FE70E94850B0F925E
:101890000F920F924DB75EB70F920E94240DE4EEA7
:1018A000F0E00E946B0C4F915F91EF91FF91E595F5
:1018B000EE1FFF1F49F0FE57E0684427EE0F441F5C
:1018C000FA95E1F74195550B0E949E0C0F9007FE8B
:1018D0000C94920C0895DF93CF931F930F93FF9274
:1018E000EF92DF927B018C01689406C0DA2EEF0143
:1018F0000E94820BFE01E894A591259135914591B6
:101900005591A6F3EF010E94B609FE019701A801C7
:10191000DA9469F7DF90EF90FF900F911F91CF91CC
:10192000DF9108959B01AC0160E070E080E89FE3E7
:101930000C94100A0C94190B0C94580D0E94490B2E
:10194000D8F39923C9F3940F511DA3F3915050403C
:1019500094F059F0882332F0660F771F881F91505A
:101960005040C1F79E3F51052CF7880F911D969569
:10197000879597F908955F3FACF0983E9CF0BB27A0
:10198000869577956795B79508F4B1609395C1F7FB
:10199000BB0F58F711F460FFE8CF6F5F7F4F8F4F99
:1019A0009F4FE3CF0C94640B16F00C94580D0C94DD
:1019B0001F0B68940C94190B0E94490BA8F39923F0
:1019C000C1F3AEF3DF93CF931F930F93FF92C92F11
:1019D000DD2788232AF02197660F771F881FDAF703
:1019E00020E030E040E85FEB9FE3883920F0803E64
:1019F00038F021968F770E949F09ECE0F1E004C057
:101A00000E949F09E9E3F1E00E946B0C8B01BE018B
:101A1000EC01FB2E6F5771097595771F880B990B99
:101A20000E94BA0A28E132E741E35FE30E94820B99
:101A3000AF2D9801AE01FF900F911F91CF91DF91D3
:101A40000E94B6090C94300BFA01DC01AA0FBB1FEF
:101A50009B01AC01BF5728F4222733274427507835
:101A600020C0B75190F4AB2F0024469537952795A9
:101A7000011CA395D2F3002071F0220F331F441FE5
:101A8000B395DAF30ED00C949E0961307105A0E88D
:101A90008A07B94630F49B01AC016627772788276F
:101AA0009078309621F020833183428353830895C8
:101AB0009F3F31F0915020F4879577956795B795C2
:101AC000880F911D9695879597F90895A1E21A2E92
:101AD000AA1BBB1BFD010DC0AA1FBB1FEE1FFF1FD2
:101AE000A217B307E407F50720F0A21BB30BE40B22
:101AF000F50B661F771F881F991F1A9469F7609569
:101B00007095809590959B01AC01BD01CF01089522
:101B1000EE0FFF1F881F8BBF0790F691E02D1994E1
:041B2000F894FFCF67
:101B240001596F7572207075626C6963206B6579F9
:101B3400206973203A2000506C6561736520656EDE
:101B440074657220746865206F746865722070759E
:101B5400626C6963206B65792E00596F7520656E20
:101B6400746572656420746865206B657920000A69
:101B74000D00082008006E616E00696E66006F76C5
:101B84006600000000001D068B03C605F205D6059D
:021B9400120637
:00000001FF
