:100000000C9481000C94B2000C94B2000C94B200D9
:100010000C94B2000C94B2000C94B2000C94B20098
:100020000C94B2000C94B2000C94B2000C94B20088
:100030000C94B2000C94B2000C94B2000C94B20078
:100040000C94B2000C94B2000C94B2000C94B20068
:100050000C94B2000C94B2000C94B2000C94EB001F
:100060000C94B2000C94A4020C9470030C94B20093
:100070000C94B2000C94B2000C94B2000C94B20038
:100080000C94B2000C94B2000C94B2000C94B20028
:100090000C94D7020C94AF030C94B2000C94B200F1
:1000A0000C94B2000C94B2000C94B2000C94B20008
:1000B0000C94B2000C94B2000C94B2000C94B200F8
:1000C0000C94B2000C94B2000C94B2000C940A038D
:1000D0000C94EE030C94B2000C943D030C942D048C
:1000E0000C94B2000C94F1010C9401020C9448029F
:1000F0000C9497010C941D020C94F4040C943D0292
:10010000F40411241FBECFEFD1E2DEBFCDBF00E06B
:100110000CBF12E0A0E0B2E0EAEEFBE000E00BBFB3
:1001200002C007900D92AC32B107D9F724E0ACE2DF
:10013000B2E001C01D92AD3DB207E1F710E0C1E8A9
:10014000D0E000E006C021970109802FFE010E9447
:10015000EB05C038D10780E00807A9F70E94CE0060
:100160000C94C6050C9400000E94350140E855E24D
:1001700060E070E08BE992E00C946C04BC018BE9C8
:1001800092E00E94D401BC0160507E4F8BE992E066
:100190000E94D4018BE992E00C94DD010E94B4002E
:1001A00082E092E00E94BE008AE092E00E94BE00DF
:1001B0008FE092E00E94BE0080E092E00E94BE00CC
:1001C0008BE992E00E94DD018BE992E00E943D0202
:1001D00080E090E008951F920F920FB60F921124C5
:1001E0002F933F938F939F93AF93BF9380912D0253
:1001F00090912E02A0912F02B091300230912C02EA
:1002000023E0230F2D3720F40196A11DB11D05C059
:1002100026E8230F0296A11DB11D20932C02809386
:100220002D0290932E02A0932F02B0933002809162
:10023000310290913202A0913302B09134020196C2
:10024000A11DB11D8093310290933202A09333021D
:10025000B0933402BF91AF919F918F913F912F91B5
:100260000F900FBE0F901F901895789484B5826000
:1002700084BD84B5816084BD85B5826085BD85B54A
:10028000816085BDEEE6F0E0808181608083E1E8F9
:10029000F0E0108280818260808380818160808331
:1002A000E0E8F0E0808181608083E1EBF0E0808134
:1002B00084608083E0EBF0E0808181608083E1E90D
:1002C000F0E0808182608083808181608083E0E9CA
:1002D000F0E0808181608083E1EAF0E080818260EB
:1002E0008083808181608083E0EAF0E080818160AA
:1002F0008083E1E2F1E0808182608083808181609F
:100300008083E0E2F1E0808181608083EAE7F0E0D1
:10031000808184608083808182608083808181602D
:1003200080838081806880831092C1000895CF927D
:10033000DF92EF92FF920F931F93CF93DF936C01A5
:10034000EB017B01E40EF51E00E010E0CE15DF05A9
:1003500061F06991D601ED91FC910190F081E02D61
:10036000C6011995080F191FF1CFC801DF91CF9170
:100370001F910F91FF90EF90DF90CF90089561153E
:10038000710579F0FB0101900020E9F73197AF0189
:10039000461B570BDC01ED91FC910280F381E02DAF
:1003A000199480E090E008950C94BF01DC01ED9178
:1003B000FC910190F081E02D19940F931F93CF933E
:1003C000DF93EC016DE00E94D6018C016AE0CE0162
:1003D0000E94D601800F911FDF91CF911F910F9145
:1003E0000895FC0124853585F901E05CFF4F80818B
:1003F0009181329620813181821B930B8F739927D3
:100400000895DC011C96ED91FC911D97DF01A05C25
:10041000BF4F2D913C91119712968D919C91119700
:100420002817390739F08D919C91E80FF91F8081C9
:1004300090E008958FEF9FEF0895FC01A485B585A6
:10044000FD01E05CFF4F20813181329680819181F6
:100450002817390779F080819181A80FB91F8C91F5
:10046000208131812F5F3F4F2F73332731832083CA
:1004700090E008958FEF9FEF0895FC0181A18823FC
:1004800029F0A489B5898C9186FFFBCF11A208952C
:100490000F931F93CF93DF93FC01A685B7858D0142
:1004A000005C1F4FE8018881998101968F7399271D
:1004B000AD014E5B5F4FEA012881398182179307B6
:1004C000D1F3E80128813981A20FB31F6C93A6856F
:1004D000B785A05CBF4F11969C938E93A689B78970
:1004E0002C9181E090E0078C02C0880F991F0A943C
:1004F000E2F7822B8C9381E081A30488F589E02DBB
:1005000080818064808381E090E0DF91CF911F91B2
:100510000F910895FB01E05CFF4F208131812F5F37
:100520003F4F2F733327DB01AE5BBF4F4D915C9183
:100530002417350741F040815181DB01A40FB51F1D
:100540008C933183208308951F920F920FB60F92E0
:1005500011240BB60F922F933F934F935F936F939A
:100560007F938F939F93AF93BF93EF93FF9380916C
:10057000C00082FD07C08091C60069E974E00E9456
:100580008A0202C08091C600FF91EF91BF91AF91A6
:100590009F918F917F916F915F914F913F912F919B
:1005A0000F900BBE0F900FBE0F901F9018951F92CB
:1005B0000F920FB60F9211240BB60F922F933F9309
:1005C0004F935F936F937F938F939F93AF93BF935B
:1005D000EF93FF938091C80082FD07C08091CE0009
:1005E00061E174E00E948A0202C08091CE00FF9116
:1005F000EF91BF91AF919F918F917F916F915F919B
:100600004F913F912F910F900BBE0F900FBE0F9007
:100610001F9018951F920F920FB60F9211240BB6D0
:100620000F922F933F934F935F936F937F938F938B
:100630009F93AF93BF93EF93FF938091D00082FD80
:1006400007C08091D60069E873E00E948A0202C068
:100650008091D600FF91EF91BF91AF919F918F91C3
:100660007F916F915F914F913F912F910F900BBEB2
:100670000F900FBE0F901F9018951F920F920FB6FC
:100680000F9211240BB60F922F933F934F935F93CA
:100690006F937F938F939F93AF93BF93EF93FF934A
:1006A0008091300182FD07C08091360161E073E0E6
:1006B0000E948A0202C080913601FF91EF91BF91A2
:1006C000AF919F918F917F916F915F914F913F91EA
:1006D0002F910F900BBE0F900FBE0F901F9018958B
:1006E0001F920F920FB60F9211240BB60F922F93F9
:1006F0003F938F939F93EF93FF93209195043091B5
:10070000960480919704909198042817390731F442
:100710008091C1008F7D8093C10014C0E091970447
:10072000F0919804EB5AFB4F2081809197049091AF
:10073000980401968F739927909398048093970457
:100740002093C600FF91EF919F918F913F912F9140
:100750000F900BBE0F900FBE0F901F9018951F9219
:100760000F920FB60F9211240BB60F922F933F9357
:100770008F939F93EF93FF9320910D0430910E047C
:1007800080910F04909110042817390731F480915B
:10079000C9008F7D8093C90014C0E0910F04F091CF
:1007A0001004E353FC4F208180910F0490911004BA
:1007B00001968F7399279093100480930F042093D0
:1007C000CE00FF91EF919F918F913F912F910F90CC
:1007D0000BBE0F900FBE0F901F9018951F920F9297
:1007E0000FB60F9211240BB60F922F933F938F9356
:1007F0009F93EF93FF93209185033091860380911F
:100800008703909188032817390731F48091D1002C
:100810008F7D8093D10014C0E0918703F09188030D
:10082000EB5BFC4F208180918703909188030196B8
:100830008F73992790938803809387032093D60022
:10084000FF91EF919F918F913F912F910F900BBE50
:100850000F900FBE0F901F9018951F920F920FB61A
:100860000F9211240BB60F922F933F938F939F9368
:10087000EF93FF932091FD023091FE028091FF02E1
:10088000909100032817390731F4809131018F7D51
:100890008093310114C0E091FF02F0910003E35412
:1008A000FD4F20818091FF029091000301968F738C
:1008B0009927909300038093FF0220933601FF91C4
:1008C000EF919F918F913F912F910F900BBE0F90C1
:1008D0000FBE0F901F901895CF92DF92EF92FF926C
:1008E0000F931F93CF93DF93EC016A017B014115B6
:1008F000514E6105710509F1EC89FD8981E090E0B7
:1009000008A002C0880F991F0A94E2F7808360E074
:1009100079E08DE390E0A70196010E94C905890165
:100920009A0101501109210931093695279517952A
:100930000795980101151041A8F0EC89FD891082F6
:1009400060E874E88EE190E0A70196010E94C90575
:10095000DA01C9010197A109B109B695A795979543
:1009600087959C01E889F9893083EA89FB8920838E
:1009700019A2EE89FF89408181E090E09C010C8CF6
:1009800002C0220F331F0A94E2F7242B2083EE8942
:10099000FF8940819C010D8C02C0220F331F0A94F5
:1009A000E2F7242B2083EE89FF8940819C010E8C85
:1009B00002C0220F331F0A94E2F7242B2083EE8912
:1009C000FF8920810F8C02C0880F991F0A94E2F7DB
:1009D000809582238083DF91CF911F910F91FF90AB
:1009E000EF90DF90CF900895CF92DF92EF92FF9239
:1009F000EBE9F2E01382128288EEC82E83E0D82E53
:100A0000E12CF12CC482D582E682F78260E272E0AA
:100A10007183608389E994E09587848785E594E014
:100A20009787868785EC90E0918B808B84EC90E0B3
:100A3000938B828B80EC90E0958B848B81EC90E0A3
:100A4000978B868B82EC90E0918F808F86EC90E084
:100A5000938F828F44E0448F33E0358F27E0268FD9
:100A600095E0978F81E080A3E9E7F2E0138212829C
:100A7000C482D582E682F78271836083A1E1B4E00B
:100A8000B587A487ADECB3E0B787A687ADECB0E03F
:100A9000B18BA08BACECB0E0B38BA28BA8ECB0E038
:100AA000B58BA48BA9ECB0E0B78BA68BAAECB0E019
:100AB000B18FA08FAEECB0E0B38FA28F448F358F93
:100AC000268F978F80A3E7E5F2E013821282C4821B
:100AD000D582E682F78271836083A9E8B3E0B587A7
:100AE000A487A5E4B3E0B787A687A5EDB0E0B18BF6
:100AF000A08BA4EDB0E0B38BA28BA0EDB0E0B58BE2
:100B0000A48BA1EDB0E0B78BA68BA2EDB0E0B18FC6
:100B1000A08FA6EDB0E0B38FA28F448F358F268FC4
:100B2000978F80A3E5E3F2E013821282C482D5821C
:100B3000E682F7827183608361E073E07587648782
:100B40006DEB72E07787668765E371E0718B608B90
:100B500064E371E0738B628B60E371E0758B648B8F
:100B600061E371E0778B668B62E371E0718F608F78
:100B700066E371E0738F628F448F358F268F978F76
:100B800080A3FF90EF90DF90CF900895F8940C949D
:100B9000F305A1E21A2EAA1BBB1BFD010DC0AA1F63
:100BA000BB1FEE1FFF1FA217B307E407F50720F0D6
:100BB000A21BB30BE40BF50B661F771F881F991F51
:100BC0001A9469F760957095809590959B01AC019A
:100BD000BD01CF010895EE0FFF1F881F8BBF079047
:0A0BE000F691E02D1994F894FFCF70
:100BEA00200061726475696E6F00666F75720073BA
:100BFA00706163657320636F756E74000000000096
:0C0C0A0048029701F1011D0201023D02A9
:00000001FF
