:100000000C9481000C94B2000C94B2000C94B200D9
:100010000C94B2000C94B2000C94B2000C94B20098
:100020000C94B2000C94B2000C94B2000C94B20088
:100030000C94B2000C94B2000C94B2000C94B20078
:100040000C94B2000C94B2000C94B2000C94B20068
:100050000C94B2000C94B2000C94B2000C94CF003B
:100060000C94B2000C94B8020C9484030C94B2006B
:100070000C94B2000C94B2000C94B2000C94B20038
:100080000C94B2000C94B2000C94B2000C94B20028
:100090000C94EB020C94C3030C94B2000C94B200C9
:1000A0000C94B2000C94B2000C94B2000C94B20008
:1000B0000C94B2000C94B2000C94B2000C94B200F8
:1000C0000C94B2000C94B2000C94B2000C941E0379
:1000D0000C9402040C94B2000C9451030C9441044F
:1000E0000C94B2000C94C6010C9415020C940502F9
:1000F0000C9431020C9451020C945C020C9408058F
:10010000080511241FBECFEFD1E2DEBFCDBF00E056
:100110000CBF12E0A0E0B2E0E2E1FCE000E00BBFC7
:1001200002C007900D92AE31B107D9F724E0AEE1DD
:10013000B2E001C01D92AF3CB207E1F710E0C1E8A8
:10014000D0E000E006C021970109802FFE010E9447
:10015000FF05C038D10780E00807A9F70E94BE005C
:100160000C94DA050C9400000E94640140E855E20A
:1001700060E070E08DE892E00C9480040E94B4008E
:1001800060E072E08DE892E00E94030264E670E0B5
:1001900080E090E00E943E0180E090E008951F9290
:1001A0000F920FB60F9211242F933F938F939F932B
:1001B000AF93BF9380911F0290912002A0912102E2
:1001C000B091220230911E0223E0230F2D3720F43C
:1001D0000196A11DB11D05C026E8230F0296A11DA1
:1001E000B11D20931E0280931F0290932002A093C2
:1001F0002102B09322028091230290912402A091C7
:100200002502B09126020196A11DB11D8093230203
:1002100090932402A0932502B0932602BF91AF9140
:100220009F918F913F912F910F900FBE0F901F9034
:1002300018953FB7F8948091230290912402A091E1
:100240002502B091260226B5A89B05C02F3F19F0C4
:100250000196A11DB11D3FBFBA2FA92F982F882746
:10026000820F911DA11DB11DBC01CD0142E0660FA1
:10027000771F881F991F4A95D1F70895CF92DF9273
:10028000EF92FF92CF93DF936B017C010E941901E3
:10029000EB01C114D104E104F10479F00E941901C9
:1002A0006C1B7D0B683E7340A0F381E0C81AD10837
:1002B000E108F108C851DC4FECCFDF91CF91FF90FE
:1002C000EF90DF90CF900895789484B5826084BDDC
:1002D00084B5816084BD85B5826085BD85B581604A
:1002E00085BDEEE6F0E0808181608083E1E8F0E0AA
:1002F0001082808182608083808181608083E0E8D9
:10030000F0E0808181608083E1EBF0E080818460B7
:100310008083E0EBF0E0808181608083E1E9F0E0C0
:10032000808182608083808181608083E0E9F0E069
:10033000808181608083E1EAF0E080818260808357
:10034000808181608083E0EAF0E080818160808349
:10035000E1E2F1E08081826080838081816080833E
:10036000E0E2F1E0808181608083EAE7F0E0808173
:1003700084608083808182608083808181608083CB
:100380008081806880831092C1000895CF92DF92AF
:10039000EF92FF920F931F93CF93DF936C01EB01CA
:1003A0007B01E40EF51E00E010E0CE15DF0561F0E4
:1003B0006991D601ED91FC910190F081E02DC6018B
:1003C0001995080F191FF1CFC801DF91CF911F9127
:1003D0000F91FF90EF90DF90CF9008956115710518
:1003E00079F0FB0101900020E9F73197AF01461B3E
:1003F000570BDC01ED91FC910280F381E02D199403
:1004000080E090E008950C94EE01FC012485358590
:10041000F901E05CFF4F808191813296208131812A
:10042000821B930B8F7399270895DC011C96ED9125
:10043000FC911D97DF01A05CBF4F2D913C9111975E
:1004400012968D919C9111972817390739F08D914B
:100450009C91E80FF91F808190E008958FEF9FEF46
:100460000895FC01A485B585FD01E05CFF4F208166
:1004700031813296808191812817390779F0808106
:100480009181A80FB91F8C91208131812F5F3F4F3F
:100490002F7333273183208390E008958FEF9FEFF0
:1004A0000895FC0181A1882329F0A489B5898C9144
:1004B00086FFFBCF11A208950F931F93CF93DF9375
:1004C000FC01A685B7858D01005C1F4FE80188817E
:1004D000998101968F739927AD014E5B5F4FEA01B9
:1004E0002881398182179307D1F3E8012881398166
:1004F000A20FB31F6C93A685B785A05CBF4F119662
:100500009C938E93A689B7892C9181E090E0078C0B
:1005100002C0880F991F0A94E2F7822B8C9381E026
:1005200081A30488F589E02D80818064808381E047
:1005300090E0DF91CF911F910F910895FB01E05C56
:10054000FF4F208131812F5F3F4F2F733327DB0116
:10055000AE5BBF4F4D915C912417350741F0408150
:100560005181DB01A40FB51F8C9331832083089543
:100570001F920F920FB60F9211240BB60F922F936A
:100580003F934F935F936F937F938F939F93AF931B
:10059000BF93EF93FF938091C00082FD07C08091CD
:1005A000C6006BE874E00E949E0202C08091C60003
:1005B000FF91EF91BF91AF919F918F917F916F913B
:1005C0005F914F913F912F910F900BBE0F900FBEF7
:1005D0000F901F9018951F920F920FB60F92112433
:1005E0000BB60F922F933F934F935F936F937F932D
:1005F0008F939F93AF93BF93EF93FF938091C80026
:1006000082FD07C08091CE0063E074E00E949E02EC
:1006100002C08091CE00FF91EF91BF91AF919F9169
:100620008F917F916F915F914F913F912F910F909B
:100630000BBE0F900FBE0F901F9018951F920F9238
:100640000FB60F9211240BB60F922F933F934F9337
:100650005F936F937F938F939F93AF93BF93EF932A
:10066000FF938091D00082FD07C08091D6006BE798
:1006700073E00E949E0202C08091D600FF91EF912C
:10068000BF91AF919F918F917F916F915F914F91AA
:100690003F912F910F900BBE0F900FBE0F901F90A8
:1006A00018951F920F920FB60F9211240BB60F924E
:1006B0002F933F934F935F936F937F938F939F936A
:1006C000AF93BF93EF93FF938091300182FD07C0FA
:1006D0008091360163EF72E00E949E0202C0809119
:1006E0003601FF91EF91BF91AF919F918F917F91D3
:1006F0006F915F914F913F912F910F900BBE0F9093
:100700000FBE0F901F9018951F920F920FB60F9269
:1007100011240BB60F922F933F938F939F93EF93D8
:10072000FF932091870430918804809189049091EF
:100730008A042817390731F48091C1008F7D809396
:10074000C10014C0E0918904F0918A04E95BFB4F79
:1007500020818091890490918A0401968F73992752
:1007600090938A04809389042093C600FF91EF91AF
:100770009F918F913F912F910F900BBE0F900FBEC5
:100780000F901F9018951F920F920FB60F92112481
:100790000BB60F922F933F938F939F93EF93FF93FB
:1007A0002091FF0330910004809101049091020494
:1007B0002817390731F48091C9008F7D8093C900D3
:1007C00014C0E0910104F0910204E154FC4F208137
:1007D000809101049091020401968F739927909360
:1007E0000204809301042093CE00FF91EF919F912A
:1007F0008F913F912F910F900BBE0F900FBE0F90D6
:100800001F9018951F920F920FB60F9211240BB6DE
:100810000F922F933F938F939F93EF93FF9320918A
:100820007703309178038091790390917A032817A8
:10083000390731F48091D1008F7D8093D10014C0AD
:10084000E0917903F0917A03E95CFC4F208180917B
:10085000790390917A0301968F73992790937A0385
:10086000809379032093D600FF91EF919F918F9110
:100870003F912F910F900BBE0F900FBE0F901F90C6
:1008800018951F920F920FB60F9211240BB60F926C
:100890002F933F938F939F93EF93FF932091EF02BA
:1008A0003091F0028091F1029091F20228173907FD
:1008B00031F4809131018F7D8093310114C0E0913A
:1008C000F102F091F202E155FD4F20818091F10299
:1008D0009091F20201968F7399279093F202809380
:1008E000F10220933601FF91EF919F918F913F91FB
:1008F0002F910F900BBE0F900FBE0F901F90189569
:10090000CF92DF92EF92FF920F931F93CF93DF93DB
:10091000EC016A017B014115514E6105710509F138
:10092000EC89FD8981E090E008A002C0880F991F42
:100930000A94E2F7808360E079E08DE390E0A7011C
:1009400096010E94DD0589019A01015011092109D2
:10095000310936952795179507959801011510418E
:10096000A8F0EC89FD89108260E874E88EE190E0DF
:10097000A70196010E94DD05DA01C9010197A109CD
:10098000B109B695A795979587959C01E889F9894E
:100990003083EA89FB89208319A2EE89FF8940818F
:1009A00081E090E09C010C8C02C0220F331F0A945E
:1009B000E2F7242B2083EE89FF8940819C010D8C76
:1009C00002C0220F331F0A94E2F7242B2083EE8902
:1009D000FF8940819C010E8C02C0220F331F0A94B4
:1009E000E2F7242B2083EE89FF8920810F8C02C03F
:1009F000880F991F0A94E2F7809582238083DF9104
:100A0000CF911F910F91FF90EF90DF90CF900895BD
:100A1000CF92DF92EF92FF92EDE8F2E01382128222
:100A200088EEC82E83E0D82EE12CF12CC482D5822A
:100A3000E682F78261E172E0718360838BE894E083
:100A40009587848787E494E09787868785EC90E094
:100A5000918B808B84EC90E0938B828B80EC90E088
:100A6000958B848B81EC90E0978B868B82EC90E069
:100A7000918F808F86EC90E0938F828F44E0448F3B
:100A800033E0358F27E0268F95E0978F81E080A3B4
:100A9000EBE6F2E013821282C482D582E682F7820C
:100AA00071836083A3E0B4E0B587A487AFEBB3E0C4
:100AB000B787A687ADECB0E0B18BA08BACECB0E013
:100AC000B38BA28BA8ECB0E0B58BA48BA9ECB0E003
:100AD000B78BA68BAAECB0E0B18FA08FAEECB0E0E4
:100AE000B38FA28F448F358F268F978F80A3E9E431
:100AF000F2E013821282C482D582E682F782718389
:100B00006083ABE7B3E0B587A487A7E3B3E0B7871B
:100B1000A687A5EDB0E0B18BA08BA4EDB0E0B38BC0
:100B2000A28BA0EDB0E0B58BA48BA1EDB0E0B78BAC
:100B3000A68BA2EDB0E0B18FA08FA6EDB0E0B38F91
:100B4000A28F448F358F268F978F80A3E7E2F2E044
:100B500013821282C482D582E682F7827183608317
:100B600063EF72E0758764876FEA72E07787668764
:100B700065E371E0718B608B64E371E0738B628B72
:100B800060E371E0758B648B61E371E0778B668B5A
:100B900062E371E0718F608F66E371E0738F628F43
:100BA000448F358F268F978F80A3FF90EF90DF9033
:100BB000CF900895F8940C940706A1E21A2EAA1B70
:100BC000BB1BFD010DC0AA1FBB1FEE1FFF1FA217FD
:100BD000B307E407F50720F0A21BB30BE40BF50BFA
:100BE000661F771F881F991F1A9469F76095709583
:100BF000809590959B01AC01BD01CF010895EE0F4A
:100C0000FF1F881F8BBF0790F691E02D1994F89471
:020C1000FFCF14
:100C120068656C6C6F20776F726C64210000000055
:0E0C2200005C02C601050231021502510200FB
:00000001FF
