:100000000C9481000C94B2000C94B2000C94B200D9
:100010000C94B2000C94B2000C94B2000C94B20098
:100020000C94B2000C94B2000C94B2000C94B20088
:100030000C94B2000C94B2000C94B2000C94B20078
:100040000C94B2000C94B2000C94B2000C94B20068
:100050000C94B2000C94B2000C94B2000C94DF002B
:100060000C94B2000C9484020C9450030C94B200D3
:100070000C94B2000C94B2000C94B2000C94B20038
:100080000C94B2000C94B2000C94B2000C94B20028
:100090000C94B7020C948F030C94B2000C94B20031
:1000A0000C94B2000C94B2000C94B2000C94B20008
:1000B0000C94B2000C94B2000C94B2000C94B200F8
:1000C0000C94B2000C94B2000C94B2000C94EA02AE
:1000D0000C94CE030C94B2000C941D030C940D04EC
:1000E0000C94B2000C94D4040C9428020C94D1010A
:1000F0000C941D020C948B010C94E1010C94FD01F5
:10010000D40411241FBECFEFD1E2DEBFCDBF00E08B
:100110000CBF12E0A0E0B2E0EAEAFBE000E00BBFB7
:1001200002C007900D92A831B107D9F724E0A8E1E9
:10013000B2E001C01D92A93CB207E1F710E0C1E8AE
:10014000D0E000E006C021970109802FFE010E9447
:10015000CB05C038D10780E00807A9F70E94DA0074
:100160000C94A6050C9400000E94290140E855E279
:1001700060E070E087E892E00C944C0487E892E03D
:100180000E94FD018F3F2FEF9207C1F38D30910543
:1001900019F460E072E005C08830910531F463E045
:1001A00072E087E892E00C94C801682F87E892E03B
:1001B0000C94CA010E94B4000E94BE00FDCF1F92A1
:1001C0000F920FB60F9211242F933F938F939F930B
:1001D000AF93BF938091190290911A02A0911B02D4
:1001E000B0911C023091180223E0230F2D3720F428
:1001F0000196A11DB11D05C026E8230F0296A11D81
:10020000B11D209318028093190290931A02A093B3
:100210001B02B0931C0280911D0290911E02A091BE
:100220001F02B09120020196A11DB11D80931D02F5
:1002300090931E02A0931F02B0932002BF91AF9132
:100240009F918F913F912F910F900FBE0F901F9014
:100250001895789484B5826084BD84B5816084BD2E
:1002600085B5826085BD85B5816085BDEEE6F0E02F
:10027000808181608083E1E8F0E01082808182608B
:100280008083808181608083E0E8F0E0808181600C
:100290008083E1EBF0E0808184608083E0EBF0E03C
:1002A000808181608083E1E9F0E0808182608083E9
:1002B000808181608083E0E9F0E0808181608083DB
:1002C000E1EAF0E0808182608083808181608083C8
:1002D000E0EAF0E0808181608083E1E2F1E080810A
:1002E00082608083808181608083E0E2F1E08081B0
:1002F00081608083EAE7F0E0808184608083808190
:100300008260808380818160808380818068808337
:100310001092C1000895CF92DF92EF92FF920F9357
:100320001F93CF93DF936C01EB017B01E40EF51E6D
:1003300000E010E0CE15DF0561F06991D601ED9186
:10034000FC910190F081E02DC6011995080F191F4D
:10035000F1CFC801DF91CF911F910F91FF90EF90E6
:10036000DF90CF9008956115710579F0FB01019040
:100370000020E9F73197AF01461B570BDC01ED91E7
:10038000FC910280F381E02D199480E090E00895C3
:100390000C94B301DC01ED91FC910190F081E02D12
:1003A0001994FC0124853585F901E05CFF4F8081BB
:1003B0009181329620813181821B930B8F73992713
:1003C0000895DC011C96ED91FC911D97DF01A05C66
:1003D000BF4F2D913C91119712968D919C91119741
:1003E0002817390739F08D919C91E80FF91F80810A
:1003F00090E008958FEF9FEF0895FC01A485B585E7
:10040000FD01E05CFF4F2081318132968081918136
:100410002817390779F080819181A80FB91F8C9135
:10042000208131812F5F3F4F2F733327318320830A
:1004300090E008958FEF9FEF0895FC0181A188233C
:1004400029F0A489B5898C9186FFFBCF11A208956C
:100450000F931F93CF93DF93FC01A685B7858D0182
:10046000005C1F4FE8018881998101968F7399275D
:10047000AD014E5B5F4FEA012881398182179307F6
:10048000D1F3E80128813981A20FB31F6C93A685AF
:10049000B785A05CBF4F11969C938E93A689B789B0
:1004A0002C9181E090E0078C02C0880F991F0A947C
:1004B000E2F7822B8C9381E081A30488F589E02DFB
:1004C00080818064808381E090E0DF91CF911F91F3
:1004D0000F910895FB01E05CFF4F208131812F5F78
:1004E0003F4F2F733327DB01AE5BBF4F4D915C91C4
:1004F0002417350741F040815181DB01A40FB51F5E
:100500008C933183208308951F920F920FB60F9220
:1005100011240BB60F922F933F934F935F936F93DA
:100520007F938F939F93AF93BF93EF93FF938091AC
:10053000C00082FD07C08091C60065E874E00E949B
:100540006A0202C08091C600FF91EF91BF91AF9106
:100550009F918F917F916F915F914F913F912F91DB
:100560000F900BBE0F900FBE0F901F9018951F920B
:100570000F920FB60F9211240BB60F922F933F9349
:100580004F935F936F937F938F939F93AF93BF939B
:10059000EF93FF938091C80082FD07C08091CE0049
:1005A0006DEF73E00E946A0202C08091CE00FF915D
:1005B000EF91BF91AF919F918F917F916F915F91DB
:1005C0004F913F912F910F900BBE0F900FBE0F9048
:1005D0001F9018951F920F920FB60F9211240BB611
:1005E0000F922F933F934F935F936F937F938F93CC
:1005F0009F93AF93BF93EF93FF938091D00082FDC1
:1006000007C08091D60065E773E00E946A0202C0CD
:100610008091D600FF91EF91BF91AF919F918F9103
:100620007F916F915F914F913F912F910F900BBEF2
:100630000F900FBE0F901F9018951F920F920FB63C
:100640000F9211240BB60F922F933F934F935F930A
:100650006F937F938F939F93AF93BF93EF93FF938A
:100660008091300182FD07C0809136016DEE72E00D
:100670000E946A0202C080913601FF91EF91BF9102
:10068000AF919F918F917F916F915F914F913F912A
:100690002F910F900BBE0F900FBE0F901F901895CB
:1006A0001F920F920FB60F9211240BB60F922F9339
:1006B0003F938F939F93EF93FF9320918104309109
:1006C000820480918304909184042817390731F4BF
:1006D0008091C1008F7D8093C10014C0E09183049C
:1006E000F0918404EF5BFB4F208180918304909113
:1006F000840401968F7399279093840480938304D4
:100700002093C600FF91EF919F918F913F912F9180
:100710000F900BBE0F900FBE0F901F9018951F9259
:100720000F920FB60F9211240BB60F922F933F9397
:100730008F939F93EF93FF932091F9033091FA03E6
:100740008091FB039091FC032817390731F48091C5
:10075000C9008F7D8093C90014C0E091FB03F09124
:10076000FC03E754FC4F20818091FB039091FC0334
:1007700001968F7399279093FC038093FB0320933A
:10078000CE00FF91EF919F918F913F912F910F900C
:100790000BBE0F900FBE0F901F9018951F920F92D7
:1007A0000FB60F9211240BB60F922F933F938F9396
:1007B0009F93EF93FF932091710330917203809187
:1007C0007303909174032817390731F48091D10095
:1007D0008F7D8093D10014C0E0917303F091740376
:1007E000EF5CFC4F2081809173039091740301961C
:1007F0008F73992790937403809373032093D6008B
:10080000FF91EF919F918F913F912F910F900BBE90
:100810000F900FBE0F901F9018951F920F920FB65A
:100820000F9211240BB60F922F933F938F939F93A8
:10083000EF93FF932091E9023091EA028091EB025D
:100840009091EC022817390731F4809131018F7DA6
:100850008093310114C0E091EB02F091EC02E75576
:10086000FD4F20818091EB029091EC0201968F73F5
:1008700099279093EC028093EB0220933601FF912D
:10088000EF919F918F913F912F910F900BBE0F9001
:100890000FBE0F901F901895CF92DF92EF92FF92AC
:1008A0000F931F93CF93DF93EC016A017B014115F6
:1008B000514E6105710509F1EC89FD8981E090E0F7
:1008C00008A002C0880F991F0A94E2F7808360E0B5
:1008D00079E08DE390E0A70196010E94A9058901C6
:1008E0009A0101501109210931093695279517956B
:1008F0000795980101151041A8F0EC89FD89108237
:1009000060E874E88EE190E0A70196010E94A905D5
:10091000DA01C9010197A109B109B695A795979583
:1009200087959C01E889F9893083EA89FB892083CE
:1009300019A2EE89FF89408181E090E09C010C8C36
:1009400002C0220F331F0A94E2F7242B2083EE8982
:10095000FF8940819C010D8C02C0220F331F0A9435
:10096000E2F7242B2083EE89FF8940819C010E8CC5
:1009700002C0220F331F0A94E2F7242B2083EE8952
:10098000FF8920810F8C02C0880F991F0A94E2F71B
:10099000809582238083DF91CF911F910F91FF90EB
:1009A000EF90DF90CF900895CF92DF92EF92FF9279
:1009B000E7E8F2E01382128288EEC82E83E0D82E98
:1009C000E12CF12CC482D582E682F7826BE072E0E2
:1009D0007183608385E894E09587848781E494E05F
:1009E0009787868785EC90E0918B808B84EC90E0F4
:1009F000938B828B80EC90E0958B848B81EC90E0E4
:100A0000978B868B82EC90E0918F808F86EC90E0C4
:100A1000938F828F44E0448F33E0358F27E0268F19
:100A200095E0978F81E080A3E5E6F2E013821282E1
:100A3000C482D582E682F78271836083ADEFB3E032
:100A4000B587A487A9EBB3E0B787A687ADECB0E084
:100A5000B18BA08BACECB0E0B38BA28BA8ECB0E078
:100A6000B58BA48BA9ECB0E0B78BA68BAAECB0E059
:100A7000B18FA08FAEECB0E0B38FA28F448F358FD3
:100A8000268F978F80A3E3E4F2E013821282C48260
:100A9000D582E682F78271836083A5E7B3E0B587EC
:100AA000A487A1E3B3E0B787A687A5EDB0E0B18B3B
:100AB000A08BA4EDB0E0B38BA28BA0EDB0E0B58B22
:100AC000A48BA1EDB0E0B78BA68BA2EDB0E0B18F07
:100AD000A08FA6EDB0E0B38FA28F448F358F268F05
:100AE000978F80A3E1E2F2E013821282C482D58262
:100AF000E682F782718360836DEE72E075876487AA
:100B000069EA72E07787668765E371E0718B608BD5
:100B100064E371E0738B628B60E371E0758B648BCF
:100B200061E371E0778B668B62E371E0718F608FB8
:100B300066E371E0738F628F448F358F268F978FB6
:100B400080A3FF90EF90DF90CF900895F8940C94DD
:100B5000D305A1E21A2EAA1BBB1BFD010DC0AA1FC3
:100B6000BB1FEE1FFF1FA217B307E407F50720F016
:100B7000A21BB30BE40BF50B661F771F881F991F91
:100B80001A9469F760957095809590959B01AC01DA
:100B9000BD01CF010895EE0FFF1F881F8BBF079087
:0A0BA000F691E02D1994F894FFCFB0
:100BAA000A0D00082008000000000028028B01D16D
:080BBA0001FD01E1011D020033
:00000001FF
